:020000001628C0
:0E0006008312031323088A00220882000800D8
:1000140003208A110A128000840AA20A0319A30A7F
:08002400F003031D0A28080087
:10002C0083120313A001A101831603178801890110
:10003C00031387010130860083122008A33EF000D1
:10004C0001300318013E2107F1007008A20071086D
:10005C00A30003208A110A12870086019529023019
:10006C002007F10021080318013EF2007108A000DE
:10007C007208A10000307206031D46280A30710672
:10008C00031D6728A001A1012008A33EF000013048
:10009C000318013E2107F1007008A2007108A300AB
:1000AC0003208A110A1287000230FB008630FC0004
:1000BC009930FD00FD0B6028FC0B6028FB0B6028C1
:1000CC00A12900302106031D6D280B302006031DCD
:1000DC0090280130A0000030A1002008A33EF000C1
:1000EC0001300318013E2107F1007008A2007108CD
:1000FC00A30003208A110A1287000230FB0086300D
:10010C00FC009930FD00FD0B8928FC0B8928FB0BAA
:10011C008928A1292008A33EF00001300318013ED4
:10012C002107F1007008A2007108A30003208A11B6
:10013C000A1287000230FB008630FC009930FD006B
:10014C00FD0BA628FC0BA628FB0BA628A129033027
:10015C002007F10021080318013EF2007108A000ED
:10016C007208A10000307206031DBE280A30710609
:10017C00031DDF28A001A1012008A33EF0000130DF
:10018C000318013E2107F1007008A2007108A300BA
:10019C0003208A110A1287000230FB008630FC0013
:1001AC009930FD00FD0BD828FC0BD828FB0BD82868
:1001BC00A12900302106031DE5280B302006031D64
:1001CC0008290130A0000030A1002008A33EF00057
:1001DC0001300318013E2107F1007008A2007108DC
:1001EC00A30003208A110A1287000230FB0086301C
:1001FC00FC009930FD00FD0B0129FC0B0129FB0BC8
:10020C000129A12900302106031D0E290C302006DE
:10021C00031D31290230A0000030A1002008A33EAC
:10022C00F00001300318013E2107F1007008A20014
:10023C007108A30003208A110A1287000230FB0008
:10024C008630FC009930FD00FD0B2A29FC0B2A2975
:10025C00FB0B2A29A1292008A33EF000013003182A
:10026C00013E2107F1007008A2007108A3000320D1
:10027C008A110A1287000230FB008630FC0099308C
:10028C00FD00FD0B4729FC0B4729FB0B4729A12936
:10029C00A00A0319A10A00302106031D57290A30B0
:1002AC002006031D7829A001A1012008A33EF0001F
:1002BC0001300318013E2107F1007008A2007108FB
:1002CC00A30003208A110A1287000230FB0086303B
:1002DC00FC009930FD00FD0B7129FC0B7129FB0B07
:1002EC007129A1292008A33EF00001300318013E1A
:1002FC002107F1007008A2007108A30003208A11E5
:10030C000A1287000230FB008630FC009930FD0099
:10031C00FD0B8E29FC0B8E29FB0B8E29A1290608BF
:10032C00023A031935280608043A0319AD280608C1
:0A033C00083A03194E292228A229CD
:100346003F3406345B344F3466346D347D340734C1
:040356007F346F344D
:04400E00D2230007B2
:00000001FF
